:100000000C9446000C9458000C9458000C94580022
:100010000C9458000C9458000C9458000C94580000
:100020000C9458000C9458000C9458000C945800F0
:100030000C9458000C9458000C9458000C945800E0
:100040000C9458000C9458000C9458000C945800D0
:100050000C9458000C9458000C9458000C945800C0
:100060000C9458000C9458000C9458000C945800B0
:100070000C9458000C9458000C9458000C945800A0
:100080000C9458000C9458000C94580011241FBE76
:10009000CFEFD0E4DEBFCDBF21E0A0E0B1E001C0F2
:1000A0001D92A230B207E1F70E94F0000C94FD000F
:1000B0000C94000080910001909101018330910522
:1000C00009F469C088F581309105D9F18230910534
:1000D00089F480B190E0809590958F709927019771
:1000E000029708F451C081E090E090930101809361
:1000F00000010AC0892B09F05CC081E090E0909378
:1001000001018093000180B1809100019091010173
:100110008430910509F45AC08530910509F45EC018
:10012000039709F44BC0089584309105D9F10597E0
:1001300009F03FC082E090E09093010180930001BC
:10014000E3CF80B190E0809590958F7099278130B2
:10015000910561F08230910581F00397A9F685E061
:1001600090E09093010180930001CECF83E090E076
:100170009093010180930001C7CF84E090E09093B9
:10018000010180930001C0CF82E090E090930101D3
:1001900080930001B9CF82E090E0909301018093B9
:1001A0000001B2CF82E090E09093010180930001C2
:1001B000ABCF1092010110920001A6CF85B189301A
:1001C00008F0B1CF85B18F5F85B9089585B18823D7
:1001D00009F4A9CF85B1815085B9089515B8A3CF89
:1001E000109201011092000111B88FEF82B984B909
:0E01F00015B815B80E945A00FDCFF894FFCF45
:00000001FF
