:100000000C9446000C9465000C9465000C946500FB
:100010000C9465000C9465000C9465000C946500CC
:100020000C9465000C9465000C9465000C946500BC
:100030000C9465000C9465000C9465000C946500AC
:100040000C9465000C9465000C9465000C9465009C
:100050000C9465000C9465000C9465000C9465008C
:100060000C9465000C9465000C9465000C9465007C
:100070000C9465000C9465000C9465000C9465006C
:100080000C9465000C9465000C94650011241FBE4F
:10009000CFEFD0E4DEBFCDBF11E0A0E0B1E0ECE3F4
:1000A000F2E000E00BBF02C007900D92AE30B10746
:1000B000D9F721E0AEE0B1E001C01D92A031B20756
:1000C000E1F70E940F010C941C010C940000CF93E7
:1000D000C82F8A3051F09091C00095FFFCCFC0939B
:1000E000C60090E080E0CF9108958DE00E94670007
:1000F000F2CF80910E0190910F018330910509F4A8
:1001000069C088F581309105D9F18230910589F473
:1001100080B190E0809590958F7099270197029714
:1001200008F451C081E090E090930F0180930E019C
:100130000AC0892B09F05CC081E090E090930F0128
:1001400080930E0180B180910E0190910F01843057
:10015000910509F45AC08530910509F45EC00397F2
:1001600009F44BC0089584309105D9F1059709F041
:100170003FC082E090E090930F0180930E01E3CFA7
:1001800080B190E0809590958F709927813091058E
:1001900061F08230910581F00397A9F685E090E047
:1001A00090930F0180930E01CECF83E090E0909367
:1001B0000F0180930E01C7CF84E090E090930F0170
:1001C00080930E01C0CF82E090E090930F01809366
:1001D0000E01B9CF82E090E090930F0180930E0161
:1001E000B2CF82E090E090930F0180930E01ABCFED
:1001F00010920F0110920E01A6CF85B1893008F040
:10020000B1CF85B18F5F85B9089585B1882309F491
:10021000A9CF85B1815085B9089515B8A3CF1092A3
:100220000F0110920E0111B88FEF82B984B915B881
:0C02300015B80E947900FDCFF894FFCFB4
:0E023C0000000002000000006700000000004B
:00000001FF
