:100000000C9436010C9455010C9455010C94550137
:100010000C9455010C9455010C9455010C94550108
:100020000C9455010C9455010C9455010C945501F8
:100030000C9455010C9419020C9455010C94550123
:100040000C9455010C9455010C9455010C945501D8
:100050000C9455010C9455010C9455010C945501C8
:100060000C9455010C9455010C9455010C945501B8
:100070000C9455010C9455010C9455010C945501A8
:100080000C9455010C9455010C945501000000008E
:100090000000005F00000007000700147F147F14B9
:1000A000242A7F2A122313086462364955225000FD
:1000B00005030000001C2241000041221C0014081E
:1000C0003E081408083E08080050300000080808E0
:1000D0000808006060000020100804023E514945F5
:1000E0003E00427F400042615149462141454B312B
:1000F0001814127F1027454545393C4A49493001BB
:10010000710905033649494936064949291E003611
:100110003600000056360000081422410014141462
:100120001414004122140802015109063249794190
:100130003E7E1111117E7F494949363E414141229F
:100140007F4141221C7F494949417F090909013EFC
:100150004149497A7F0808087F00417F41002040DB
:10016000413F017F081422417F404040407F020C04
:10017000027F7F0408107F3E4141413E7F0909090B
:10018000063E4151215E7F091929464649494931B8
:1001900001017F01013F4040403F1F2040201F3FA1
:1001A0004038403F63140814630708700807615122
:1001B000494543007F4141000204081020004141AD
:1001C0007F0004020102044040404040000102045C
:1001D0000020545454787F484444383844444420E0
:1001E000384444487F3854545418087E0901020C9E
:1001F0005252523E7F0804047800447D4000204063
:10020000443D007F1028440000417F40007C0418DA
:1002100004787C0804047838444444387C1414146A
:1002200008081414187C7C0804040848545454200A
:10023000043F4440203C4040207C1C2040201C3C8B
:100240004030403C44281028440C5050503C4464FA
:10025000544C44000836410000007F000000413645
:1002600008001008081008000000000011241FBE3C
:10027000CFEFD0E4DEBFCDBF11E0A0E0B1E0EEE80B
:10028000FEE000E00BBF02C007900D92A031B10765
:10029000D9F723E0A0E1B1E001C01D92A63EB2076C
:1002A000E1F70E9475040C943B070C940000482F62
:1002B000592F30E020E002C02F5F3F4F2417350751
:1002C0004CF490E080E0873063E09607ACF70000E4
:1002D0000196F9CF08959BB19F7B9BB988B98BB1EB
:1002E00080688BB900008BB18F778BB982E090E08A
:1002F0000E945701089581E00E946B0108958131A9
:1003000020F481580E946B01089581550E946B0171
:10031000089584E690E00E94570188E30E946B01F3
:1003200086E00E946B018FE00E946B0181E00E94D9
:100330006B018AE090E00E94570108959BB19064A0
:100340009BB988B98BB180688BB900008BB18F776E
:100350008BB981E090E00E94570108950F931F939D
:10036000CF93DF93182FC62FD72F0E947B01888150
:10037000882351F001E0010F812F0E947F018991B4
:100380000E949E01102FF3CFDF91CF911F910F910B
:10039000089511B887E880937A0080E480937C0008
:1003A00008958770806480937C00EAE7F0E08081A4
:1003B0008064808380917A0084FFFCCFEAE7F0E0DC
:1003C0008081806180832091780090917900892FCD
:1003D00090E0982F8827820F911D08958BE08093DD
:1003E00081008DE790E0909389008093880082E0FF
:1003F00080936F001092850010928400809102011A
:1004000090910301A0910401B0910501809319011D
:1004100090931A01A0931B01B0931C018FB78068C1
:100420008FBF089510928100089581E080931D018F
:1004300008951F920F920FB60F9211240BB60F92D0
:100440002F933F934F935F936F937F938F939F93DC
:10045000AF93BF93EF93FF938091190190911A018D
:10046000A0911B01B0911C010197A109B1098093D2
:10047000190190931A01A0931B01B0931C01892BC1
:100480008A2B8B2B99F0FF91EF91BF91AF919F91A8
:100490008F917F916F915F914F913F912F910F902D
:1004A0000BBE0F900FBE0F901F9018950E94150263
:1004B0008091020190910301A0910401B091050186
:1004C0008093190190931A01A0931B01B0931C0112
:1004D000DACF60930201709303018093040190933B
:1004E00005016093190170931A0180931B01909389
:1004F0001C0108950F931F93CF93DF930E94C901AE
:1005000081E00E94D101C82FD92F82E00E94D10141
:10051000082F192F83E00E94D101E0911C03F09174
:100520001D03EA30F10508F083C0E35CF84F0C943A
:100530004506CE0181599140873C910530F4C801B0
:1005400081599140873C910550F0C00FC093100134
:1005500081E090E090931D0380931C0369C080911B
:1005600011018F5F8093110181E00E947F018091D2
:10057000110190E0C0960E949E0110921D031092FE
:100580001C0356C015B880910101209115013091CE
:1005900016018217130609F03CF483E090E0909373
:1005A0001D0380931C0344C0A091100160910001C1
:1005B0008A2F0E94250690931701492F50E0220FA1
:1005C000331FF901E25EFC4F51834083A49FC001B9
:1005D000A59F900D11248B5B9F4F6DE970E00E94E9
:1005E00031068093100181E00E947F018091170104
:1005F00090E0C0960E949E0182E090E090931D03DF
:1006000080931C0315C08091170181111DC082E0E9
:1006100085B980911501909116010196909316016C
:100620008093150181E090E090931D0380931C035B
:1006300080911C0390911D03019709F453C1DF9130
:10064000CF911F910F910895813039F0823041F0A0
:100650008330F9F680E185B9DCCF88E085B9D9CF60
:1006600084E085B9D6CF8091180190910101891756
:10067000A9F08917E8F69E0121593140273C310540
:10068000D0F4980121593140273C3105A0F483E092
:1006900090E090931D0380931C03CACF1092180121
:1006A000109214011092130188E090E090931D03C2
:1006B00080931C03BDCF4091130150911401FA01A6
:1006C000EE0FFF1FE25EFC4F2081318121153105C5
:1006D00021F4003991E019078CF02130310529F11E
:1006E00022303105E9F12330310509F454C089E0A5
:1006F00090E090931D0380931C039ACF8F5F8093AB
:1007000018014F5F5F4F509314014093130181E034
:100710000E947F0185E390E00E949E0184E090E0CA
:1007200090931D0380931C0383CFC03991E0D907B8
:10073000BCF68F5F809318014F5F5F4F5093140199
:100740004093130181E00E947F0186E390E00E94C4
:100750009E0187E090E090931D0380931C0368CF77
:10076000C935D2400CF4BFCF8F5F809318014F5F23
:100770005F4F509314014093130181E00E947F0169
:1007800087E390E00E949E0186E090E090931D0335
:1007900080931C034DCF093512400CF4A8CF8F5F16
:1007A000809318014F5F5F4F5093140140931301E2
:1007B00081E00E947F0188E390E00E949E0185E035
:1007C00090E090931D0380931C0332CFC159D14018
:1007D000C73CD10560F401591140073C110538F4BC
:1007E00083E090E090931D0380931C0321CF84E06D
:1007F00090E090931D0380931C031ACFC159D14000
:10080000C73CD10560F401591140073C110538F48B
:1008100083E090E090931D0380931C0309CF87E051
:1008200090E090931D0380931C0302CFC159D140E7
:10083000C73CD10560F401591140073C110538F45B
:1008400083E090E090931D0380931C03F1CE86E03B
:1008500090E090931D0380931C03EACEC159D140D0
:10086000C73CD10560F401591140073C110538F42B
:1008700083E090E090931D0380931C03D9CE85E024
:1008800090E090931D0380931C03D2CE8FE185B935
:10089000109216011092150110921401109213017A
:1008A000809101018F5F8093010110921D031092CE
:1008B0001C03BECE81E085B90E947F018AE391E0EE
:1008C0000E949E01109214011092130110921601C1
:1008D0001092150184E08093010110921D03109283
:1008E0001C03A6CE10921801AACE8FEF81B912B8C0
:1008F00084B915B887B918B88AB91BB880911101A5
:1009000090E00E94CD0664EF71E080E090E00E94EC
:1009100069020E94EE0110921D0310921C030E94B6
:10092000890102C010921D010E947A0280911D016E
:100930008823E1F3F7CF95B19D7F95B9662329F020
:1009400095B1986095B990E00EC095B1977F95B933
:10095000FACF25B12F7E25B925B1206225B925B161
:100960002F7D25B99F5F983088F447E050E0491B00
:100970005109282F30E002C0359527954A95E2F7B6
:1009800020FFE7CF25B1206125B9E6CF85B1826090
:1009900085B9089560E00E949B04089561E00E947B
:1009A0009B040895CF93DF9384B1826084B984B1AE
:1009B000846084B984B1886084B984B1806184B969
:1009C00084B1806284B985B1846085B985B1826063
:1009D00085B983EC99E00197F1F700C0000085B17B
:1009E0008B7F85B98BE594E40197F1F700C0000097
:1009F00085B1846085B985B18D7F85B981E20E941A
:100A0000CA0483E10E94CA0486E00E94CA0482EC00
:100A10000E94CA0480E20E94CA0489E00E94CA04BB
:100A200080E80E94CA0480E40E94CA04D0E0C0E0CA
:100A3000C83F91E0D90728F480E00E94CE042196B7
:100A4000F7CF88E00E94CA048CE00E94CA04DF91BC
:100A5000CF91089580E80E94CA0480E40E94CA04ED
:100A6000109216031092170390E080E0883F21E077
:100A7000920730F4FC01E25EFE4F10820196F6CF41
:100A80000895882321F080E20E94CA04089584E238
:100A9000FBCF262F26952695269590E034E5239FBB
:100AA000800D911D1124442379F0677021E030E01E
:100AB00002C0220F331F6A95E2F7FC01E25EFE4F8F
:100AC0008081822B80830895677021E030E002C02E
:100AD000220F331F6A95E2F7FC01E25EFE4F20957C
:100AE0008081282320830895EF92FF920F931F9314
:100AF000CF93DF93E82EF62E00E041C060911703FC
:100B000080911603610F40E0800F0E9449051F5F2E
:100B1000CE01880F991F880F991F880F991F8C1B72
:100B20009D0B1817190654F5EE2D0E2C000CFF0B1B
:100B3000B097802F6F2D0E9425069F01220F331F33
:100B4000220F331FE20FF31FE80FF11DE457FF4F91
:100B5000E491F0E0812F0E94250602C0F595E7950B
:100B60008A95E2F7E0FFCACF6091170380911603E0
:100B7000610F41E0800F0E944905C9CF0F5FCF2D63
:100B8000D0E0CE01880F991F880F991F8C0F9D1FF1
:100B90000817190614F410E0BBCFE6E1F3E08F2D3F
:100BA000880F880F8F0D9081890F8F5F8083843528
:100BB00068F010921603E7E1F3E08F2D880F880F9D
:100BC000880F8F199081890F8F5F80838091170321
:100BD000803320F01092160310921703DF91CF910B
:100BE0001F910F91FF90EF9008951F93CF93DF9384
:100BF000C82FD92F162F8881882329F02196612F9D
:100C00000E947405F8CFDF91CF911F9108958093D2
:100C10001603609317030895CF93DF9380E80E9433
:100C2000CA0480E40E94CA04D0E0C0E0C83F81E06A
:100C3000D80740F4FE01E25EFE4F80810E94CE04A0
:100C40002196F4CFDF91CF910895991B79E004C0EC
:100C5000991F961708F0961B881F7A95C9F78095FB
:100C6000089597FB072E16F4009407D077FD09D05E
:100C70000E944E0607FC05D03EF4909581959F4F4B
:100C80000895709561957F4F0895EE0FFF1F002422
:100C9000001C0BBE0790F691E02D0994AA1BBB1B0C
:100CA00051E107C0AA1FBB1FA617B70710F0A61B6C
:100CB000B70B881F991F5A95A9F780959095BC018D
:100CC000CD010895CF92DF92EF92FF92CF93DF9301
:100CD000CDB7DEB72A970FB6F894DEBF0FBECDBFF3
:100CE00089879A87A985BA852D913D914D915C910F
:100CF00029833A834B835C83232B242B252B41F4BC
:100D000024E239ED4BE557E029833A834B835C833A
:100D100069817A818B819C812DE133EF41E050E044
:100D20000E94D80669017A01A7EAB1E49B01AC01EF
:100D30000E94F70669837A838B839C83ACEEB4EFC1
:100D4000A70196010E9405079B01AC0189819A8148
:100D5000AB81BC81820F931FA41FB51FB7FF03C0D7
:100D60000197A109B048E985FA8580839183A28320
:100D7000B3839F772A960FB6F894DEBF0FBECDBF20
:100D8000DF91CF91FF90EF90DF90CF9008950C947A
:100D9000620686E091E00C946206B0E0A0E08093E9
:100DA000060190930701A0930801B09309010895EB
:100DB000052E97FB1EF400940E94EF0657FD07D006
:100DC0000E940A0707FC03D04EF40C94EF065095DE
:100DD0004095309521953F4F4F4F5F4F0895909527
:100DE0008095709561957F4F8F4F9F4F08950E941A
:100DF0002C07A59F900DB49F900DA49F800D911D71
:100E000011240895B7FF0C94F7060E94F706821B81
:100E1000930B0895A1E21A2EAA1BBB1BFD010DC066
:100E2000AA1FBB1FEE1FFF1FA217B307E407F5079A
:100E300020F0A21BB30BE40BF50B661F771F881F76
:100E4000991F1A9469F760957095809590959B010C
:100E5000AC01BD01CF010895A29FB001B39FC001B5
:100E6000A39F700D811D1124911DB29F700D811DD6
:100E70001124911D0895F894FFCF9902C202030333
:0E0E80003303E6032E041604FE0346045A0450
:100E8E000404010000000100000077726F6E67001D
:00000001FF
