:100000000C9436010C9455010C9455010C94550137
:100010000C9455010C9455010C9455010C94550108
:100020000C9455010C9455010C9455010C945501F8
:100030000C9455010C9419020C9455010C94550123
:100040000C9455010C9455010C9455010C945501D8
:100050000C9455010C9455010C9455010C945501C8
:100060000C9455010C9455010C9455010C945501B8
:100070000C9455010C9455010C9455010C945501A8
:100080000C9455010C9455010C945501000000008E
:100090000000005F00000007000700147F147F14B9
:1000A000242A7F2A122313086462364955225000FD
:1000B00005030000001C2241000041221C0014081E
:1000C0003E081408083E08080050300000080808E0
:1000D0000808006060000020100804023E514945F5
:1000E0003E00427F400042615149462141454B312B
:1000F0001814127F1027454545393C4A49493001BB
:10010000710905033649494936064949291E003611
:100110003600000056360000081422410014141462
:100120001414004122140802015109063249794190
:100130003E7E1111117E7F494949363E414141229F
:100140007F4141221C7F494949417F090909013EFC
:100150004149497A7F0808087F00417F41002040DB
:10016000413F017F081422417F404040407F020C04
:10017000027F7F0408107F3E4141413E7F0909090B
:10018000063E4151215E7F091929464649494931B8
:1001900001017F01013F4040403F1F2040201F3FA1
:1001A0004038403F63140814630708700807615122
:1001B000494543007F4141000204081020004141AD
:1001C0007F0004020102044040404040000102045C
:1001D0000020545454787F484444383844444420E0
:1001E000384444487F3854545418087E0901020C9E
:1001F0005252523E7F0804047800447D4000204063
:10020000443D007F1028440000417F40007C0418DA
:1002100004787C0804047838444444387C1414146A
:1002200008081414187C7C0804040848545454200A
:10023000043F4440203C4040207C1C2040201C3C8B
:100240004030403C44281028440C5050503C4464FA
:10025000544C44000836410000007F000000413645
:1002600008001008081008000000000011241FBE3C
:10027000CFEFD0E4DEBFCDBF11E0A0E0B1E0E2E817
:10028000FDE000E00BBF02C007900D92A031B10766
:10029000D9F723E0A0E1B1E001C01D92A33EB2076F
:1002A000E1F70E9407040C94BF060C940000482F4D
:1002B000592F30E020E002C02F5F3F4F2417350751
:1002C0004CF490E080E0873063E09607ACF70000E4
:1002D0000196F9CF08959BB19F7B9BB988B98BB1EB
:1002E00080688BB900008BB18F778BB982E090E08A
:1002F0000E945701089581E00E946B0108958131A9
:1003000020F481580E946B01089581550E946B0171
:10031000089584E690E00E94570188E30E946B01F3
:1003200086E00E946B018FE00E946B0181E00E94D9
:100330006B018AE090E00E94570108959BB19064A0
:100340009BB988B98BB180688BB900008BB18F776E
:100350008BB981E090E00E94570108950F931F939D
:10036000CF93DF93182FC62FD72F0E947B01888150
:10037000882351F001E0010F812F0E947F018991B4
:100380000E949E01102FF3CFDF91CF911F910F910B
:10039000089511B887E880937A0080E480937C0008
:1003A00008958770806480937C00EAE7F0E08081A4
:1003B0008064808380917A0084FFFCCFEAE7F0E0DC
:1003C0008081806180832091780090917900892FCD
:1003D00090E0982F8827820F911D08958BE08093DD
:1003E00081008DE790E0909389008093880082E0FF
:1003F00080936F001092850010928400809102011A
:1004000090910301A0910401B09105018093160120
:1004100090931701A0931801B09319018FB78068CA
:100420008FBF089510928100089581E080931A0192
:1004300008951F920F920FB60F9211240BB60F92D0
:100440002F933F934F935F936F937F938F939F93DC
:10045000AF93BF93EF93FF93809116019091170193
:10046000A0911801B09119010197A109B1098093D8
:10047000160190931701A0931801B0931901892BCD
:100480008A2B8B2B99F0FF91EF91BF91AF919F91A8
:100490008F917F916F915F914F913F912F910F902D
:1004A0000BBE0F900FBE0F901F9018950E94150263
:1004B0008091020190910301A0910401B091050186
:1004C0008093160190931701A0931801B09319011E
:1004D000DACF60930201709303018093040190933B
:1004E0000501609316017093170180931801909392
:1004F000190108950F931F93CF93DF930E94C901B1
:1005000080E00E94D101C82FD92F81E00E94D10143
:10051000082F192F82E00E94D10180911903909138
:100520001A038330910509F496C088F5813091054E
:1005300009F44BC082309105B1F48091140181110E
:100540007AC082E085B980911201909113010196E1
:10055000909313018093120181E090E090931A032D
:100560008093190308C0892B31F481E090E09093C7
:100570001A03809319038091190390911A0301972C
:1005800009F442C1DF91CF911F910F9108958430FA
:10059000910509F425C1059771F781E085B90E949D
:1005A0007F018AE391E00E949E0110921101109256
:1005B0001001109213011092120184E08093010146
:1005C00010921A0310921903D6CF15B82091010189
:1005D00080911201909113012817190609F03CF43B
:1005E00083E090E090931A0380931903C4CF0E9494
:1005F0004D066091000170E00E94BE0580931401D9
:10060000E0911201F0911301EE0FFF1FE55EFC4F28
:1006100090E09183808381E00E947F0180911401AA
:1006200090E0C0960E949E0182E090E090931A03B1
:1006300080931903A0CF813041F0823049F083309C
:1006400009F081CF80E185B97ECF88E085B97BCF85
:1006500084E085B978CF80911501909101018917C7
:10066000B1F0891708F087CF9E0121593140273C0E
:100670003105D0F4980121593140273C3105A0F4CF
:1006800083E090E090931A038093190374CF109243
:100690001501109211011092100184E090E09093E6
:1006A0001A038093190367CF4091100150911101F3
:1006B000FA01EE0FFF1FE55EFC4F2081318121150D
:1006C000310521F4083592E019078CF0213031050D
:1006D00029F122303105E9F12330310509F465C0F3
:1006E00085E090E090931A038093190344CF8F5FC5
:1006F000809315014F5F5F4F50931101409310019C
:1007000081E00E947F0185E390E00E949E0183E0EA
:1007100090E090931A03809319032DCFC83592E08F
:10072000D907BCF68F5F809315014F5F5F4F5093E1
:1007300011014093100181E00E947F0186E390E067
:100740000E949E0183E090E090931A038093190326
:1007500012CFC13991E0D90744F4BECF81E00E94A5
:100760007F0189E390E00E949E01C93582E0D807AD
:10077000ACF7809115018F5F809315018091100176
:10078000909111010196909311018093100181E0E5
:100790000E947F0187E390E00E949E0183E090E049
:1007A00090931A0380931903E6CE093512400CF496
:1007B00097CF8F5F809315014F5F5F4F509311016B
:1007C0004093100181E00E947F0188E390E00E9445
:1007D0009E0183E090E090931A0380931903CBCE9F
:1007E0008FE185B91092130110921201109211013C
:1007F00010921001809101018F5F8093010110928E
:100800001A0310921903B7CE10921501BBCE8FEFC9
:1008100081B912B884B915B887B918B88AB91BB8A4
:1008200064EF71E080E090E00E9469020E94EE01B6
:1008300010921A03109219030E94890102C01092AB
:100840001A010E947A0280911A018823E1F3F7CFFE
:1008500095B19D7F95B9662329F095B1986095B9BA
:1008600090E00EC095B1977F95B9FACF25B12F7E54
:1008700025B925B1206225B925B12F7D25B99F5F06
:10088000983088F447E050E0491B5109282F30E0A8
:1008900002C0359527954A95E2F720FFE7CF25B1AD
:1008A000206125B9E6CF85B1826085B9089560E001
:1008B0000E942804089561E00E9428040895CF93BF
:1008C000DF9384B1826084B984B1846084B984B1D7
:1008D000886084B984B1806184B984B1806284B94C
:1008E00085B1846085B985B1826085B983EC99E072
:1008F0000197F1F700C0000085B18B7F85B98BE5CA
:1009000094E40197F1F700C0000085B1846085B9D7
:1009100085B18D7F85B981E20E94570483E10E94F1
:10092000570486E00E94570482EC0E94570480E23C
:100930000E94570489E00E94570480E80E945704EF
:1009400080E40E945704D0E0C0E0C83F91E0D9079E
:1009500028F480E00E945B042196F7CF88E00E9493
:1009600057048CE00E945704DF91CF91089580E8EE
:100970000E94570480E40E945704109213031092BF
:10098000140390E080E0883F21E0920730F4FC01FE
:10099000E55EFE4F10820196F6CF0895882321F080
:1009A00080E20E945704089584E2FBCF262F26950B
:1009B0002695269590E034E5239F800D911D112406
:1009C000442379F0677021E030E002C0220F331F2A
:1009D0006A95E2F7FC01E55EFE4F8081822B808301
:1009E0000895677021E030E002C0220F331F6A953E
:1009F000E2F7FC01E55EFE4F2095808128232083ED
:100A00000895EF92FF920F931F93CF93DF93E82EF9
:100A1000F62E00E041C06091140380911303610F32
:100A200040E0800F0E94D6041F5FCE01880F991FFF
:100A3000880F991F880F991F8C1B9D0B181719067B
:100A400054F5EE2D0E2C000CFF0BB097802F6F2D60
:100A50000E94B2059F01220F331F220F331FE20FA6
:100A6000F31FE80FF11DE457FF4FE491F0E0812FF1
:100A70000E94B20502C0F595E7958A95E2F7E0FF7E
:100A8000CACF6091140380911303610F41E0800F7E
:100A90000E94D604C9CF0F5FCF2DD0E0CE01880FC2
:100AA000991F880F991F8C0F9D1F0817190614F4A2
:100AB00010E0BBCFE3E1F3E08F2D880F880F8F0D9F
:100AC0009081890F8F5F8083843568F010921303C3
:100AD000E4E1F3E08F2D880F880F880F8F19908144
:100AE000890F8F5F808380911403803320F01092F0
:100AF000130310921403DF91CF911F910F91FF9078
:100B0000EF9008951F93CF93DF93C82FD92F162FFF
:100B10008881882329F02196612F0E940105F8CF52
:100B2000DF91CF911F910895809313036093140375
:100B30000895CF93DF9380E80E94570480E40E94D9
:100B40005704D0E0C0E0C83F81E0D80740F4FE0180
:100B5000E55EFE4F80810E945B042196F4CFDF9119
:100B6000CF910895991B79E004C0991F961708F05A
:100B7000961B881F7A95C9F78095089597FB072ED5
:100B800016F4009407D077FD09D00E94D20507FC27
:100B900005D03EF4909581959F4F0895709561958D
:100BA0007F4F0895AA1BBB1B51E107C0AA1FBB1FA3
:100BB000A617B70710F0A61BB70B881F991F5A95E9
:100BC000A9F780959095BC01CD010895CF92DF9251
:100BD000EF92FF92CF93DF93CDB7DEB72A970FB690
:100BE000F894DEBF0FBECDBF89879A87A985BA85E5
:100BF0002D913D914D915C9129833A834B835C8388
:100C0000232B242B252B41F424E239ED4BE557E02F
:100C100029833A834B835C8369817A818B819C81B0
:100C20002DE133EF41E050E00E945C0669017A015A
:100C3000A7EAB1E49B01AC010E947B0669837A8339
:100C40008B839C83ACEEB4EFA70196010E948906CA
:100C50009B01AC0189819A81AB81BC81820F931F7A
:100C6000A41FB51FB7FF03C00197A109B048E985CC
:100C7000FA8580839183A283B3839F772A960FB6E8
:100C8000F894DEBF0FBECDBFDF91CF91FF90EF9004
:100C9000DF90CF9008950C94E60586E091E00C94E7
:100CA000E605B0E0A0E08093060190930701A093D1
:100CB0000801B09309010895052E97FB1EF40094D6
:100CC0000E94730657FD07D00E948E0607FC03D0D2
:100CD0004EF40C94730650954095309521953F4FF6
:100CE0004F4F5F4F089590958095709561957F4F18
:100CF0008F4F9F4F08950E94B006A59F900DB49FFF
:100D0000900DA49F800D911D11240895B7FF0C94A0
:100D10007B060E947B06821B930B0895A1E21A2E8C
:100D2000AA1BBB1BFD010DC0AA1FBB1FEE1FFF1F8F
:100D3000A217B307E407F50720F0A21BB30BE40BDF
:100D4000F50B661F771F881F991F1A9469F7609526
:100D50007095809590959B01AC01BD01CF010895E0
:100D6000A29FB001B39FC001A39F700D811D1124EC
:100D7000911DB29F700D811D1124911D0895F8944D
:020D8000FFCFA3
:100D82000404010000000100000077726F6E67002A
:00000001FF
