:100000000C9436010C9455010C9455010C94550137
:100010000C9455010C9455010C9455010C94550108
:100020000C9455010C9455010C9455010C945501F8
:100030000C9455010C94E2020C9455010C9455015A
:100040000C9455010C9455010C9455010C945501D8
:100050000C9455010C9455010C9455010C945501C8
:100060000C9455010C9455010C9455010C945501B8
:100070000C9455010C9455010C9455010C945501A8
:100080000C9455010C9455010C945501000000008E
:100090000000005F00000007000700147F147F14B9
:1000A000242A7F2A122313086462364955225000FD
:1000B00005030000001C2241000041221C0014081E
:1000C0003E081408083E08080050300000080808E0
:1000D0000808006060000020100804023E514945F5
:1000E0003E00427F400042615149462141454B312B
:1000F0001814127F1027454545393C4A49493001BB
:10010000710905033649494936064949291E003611
:100110003600000056360000081422410014141462
:100120001414004122140802015109063249794190
:100130003E7E1111117E7F494949363E414141229F
:100140007F4141221C7F494949417F090909013EFC
:100150004149497A7F0808087F00417F41002040DB
:10016000413F017F081422417F404040407F020C04
:10017000027F7F0408107F3E4141413E7F0909090B
:10018000063E4151215E7F091929464649494931B8
:1001900001017F01013F4040403F1F2040201F3FA1
:1001A0004038403F63140814630708700807615122
:1001B000494543007F4141000204081020004141AD
:1001C0007F0004020102044040404040000102045C
:1001D0000020545454787F484444383844444420E0
:1001E000384444487F3854545418087E0901020C9E
:1001F0005252523E7F0804047800447D4000204063
:10020000443D007F1028440000417F40007C0418DA
:1002100004787C0804047838444444387C1414146A
:1002200008081414187C7C0804040848545454200A
:10023000043F4440203C4040207C1C2040201C3C8B
:100240004030403C44281028440C5050503C4464FA
:10025000544C44000836410000007F000000413645
:1002600008001008081008000000000011241FBE3C
:10027000CFEFD0E4DEBFCDBF11E0A0E0B1E0E4E419
:10028000F3E100E00BBF02C007900D92A431B1076B
:10029000D9F723E0A4E1B1E001C01D92A23FB2076B
:1002A000E1F70E94FD050C948E090C940000482F84
:1002B000592F30E020E002C02F5F3F4F2417350751
:1002C0004CF490E080E0873063E09607ACF70000E4
:1002D0000196F9CF08959BB19F7B9BB988B98BB1EB
:1002E00080688BB900008BB18F778BB982E090E08A
:1002F0000E945701089581E00E946B0108958131A9
:1003000020F481580E946B01089581550E946B0171
:10031000089584E690E00E94570188E30E946B01F3
:1003200086E00E946B018FE00E946B0181E00E94D9
:100330006B018AE090E00E94570108959BB19064A0
:100340009BB988B98BB180688BB900008BB18F776E
:100350008BB981E090E00E94570108950F931F939D
:10036000CF93DF93182FC62FD72F0E947B01888150
:10037000882351F001E0010F812F0E947F018991B4
:100380000E949E01102FF3CFDF91CF911F910F910B
:100390000895CF93DF93D82FC0E013C0ED2FF0E086
:1003A000EE0FFF1FEE0FFF1FEE0FFF1FE45EFC4F6F
:1003B000EC0FF11D108240E06C2F8D2F0E94BA06C9
:1003C000CF5FC83058F3DF91CF9108950F931F93FB
:1003D000CF93DF93082FC62FD72F81111DC0182F61
:1003E00019C0812F90E0DE01A80FB91FE02FF0E0C7
:1003F0002C91EE0FFF1FEE0FFF1FEE0FFF1FE45EAD
:10040000FC4FE80FF91F20834C91612F802F0E9431
:10041000BA061F5F183028F3DF91CF911F910F911B
:100420000895811102C0683008F00895E82FF0E0C7
:10043000EE0FFF1FEE0FFF1FEE0FFF1FE45EFC4FDE
:10044000E60FF11D40830E94BA06EFCF962F60346D
:10045000E8F46770E82FF0E0EE0FFF1FEE0FFF1FCC
:10046000EE0FFF1FE45EFC4FE60FF11D20814423D9
:1004700071F096959695969541E050E002C0440F34
:10048000551F9A95E2F7422B0E9411020895969506
:100490009695969541E050E002C0440F551F9A95FD
:1004A000E2F740954223F0CF41E00E9426020895F2
:1004B00040E00E94260208950E9475060895CF9399
:1004C0000E94DB06C0E028C0EC2FF0E0EE0FFF1F1B
:1004D000EE0FFF1FEE0FFF1FE45EFC4FE80FF11D54
:1004E00010828F5F883080F361E08C2F0E946D0650
:1004F00060E08C2F0E947D0660E08C2F0E948D06AC
:100500006FE08C2F0E94750667E08C2F0E94850695
:100510008C2F0E94C901CF5FCC2311F0CF91089599
:100520008C2FE0CF11B887E880937A0080E4809325
:100530007C0008958770806480937C00EAE7F0E097
:1005400080818064808380917A0084FFFCCFEAE719
:10055000F0E0808180618083209178009091790023
:10056000892F90E0982F8827820F911D08958BE0A6
:10057000809381008DE790E09093890080938800BC
:1005800082E080936F001092850010928400809129
:10059000020190910301A0910401B09105018093A3
:1005A0001D0190931E01A0931F01B09320018FB7EE
:1005B00080688FBF089510928100089581E0809334
:1005C000210108951F920F920FB60F9211240BB6BE
:1005D0000F922F933F934F935F936F937F938F93DC
:1005E0009F93AF93BF93EF93FF9380911D019091E1
:1005F0001E01A0911F01B09120010197A109B1092D
:1006000080931D0190931E01A0931F01B0932001C0
:10061000892B8A2B8B2B99F0FF91EF91BF91AF9192
:100620009F918F917F916F915F914F913F912F910A
:100630000F900BBE0F900FBE0F901F9018950E9449
:10064000DE028091020190910301A0910401B0911A
:10065000050180931D0190931E01A0931F01B0938B
:100660002001DACF609302017093030180930401AB
:100670009093050160931D0170931E0180931F01EB
:10068000909320010895EF92FF920F931F93CF93C1
:10069000DF93CDB7DEB728970FB6F894DEBF0FBE55
:1006A000CDBF0E94920281E00E949A02082F192F6A
:1006B00082E00E949A02E82EF92E83E00E949A02BC
:1006C000E0912803F0912903EA30F10508F083C096
:1006D000E057F64F0C949808C80181599140873C27
:1006E000910530F4C70181599140873C910550F044
:1006F0000E0D0093140181E090E090932903809304
:10070000280369C0809115018F5F8093150181E0F6
:100710000E947F018091150190E0C0960E949E0189
:10072000109229031092280356C015B88091010138
:100730002091190130911A018217130609F03CF437
:1007400083E090E0909329038093280344C0A09114
:100750001401609100018A2F0E94780890931B0178
:10076000492F50E0220F331FF901E65DFC4F518302
:100770004083A49FC001A59F900D11248B5B9F4FC8
:100780006DE970E00E9484088093140181E00E946A
:100790007F0180911B0190E0C0960E949E0182E043
:1007A00090E0909329038093280315C080911B014A
:1007B000811125C082E085B98091190190911A01BB
:1007C000019690931A018093190181E090E0909333
:1007D000290380932803809128039091290301978E
:1007E00009F408C228960FB6F894DEBF0FBECDBF3D
:1007F000DF91CF911F910F91FF90EF90089581307D
:1008000039F0823041F08330B9F680E185B9D4CF38
:1008100088E085B9D1CF84E085B9CECF80911C0125
:10082000909101018917A9F08917A8F6980121591B
:100830003140273C3105D0F4970121593140273C04
:100840003105A0F483E090E090932903809328037E
:10085000C2CF10921C01109218011092170188E06B
:1008600090E09093290380932803B5CF209117013E
:1008700030911801F901EE0FFF1FE65DFC4F40813A
:1008800051814115510529F490E9E91691E0F906E5
:100890008CF04130510529F142305105E9F14330E6
:1008A000510509F454C089E090E0909329038093A6
:1008B000280391CF8F5F80931C012F5F3F4F3093B0
:1008C00018012093170181E00E947F0185E390E0E9
:1008D0000E949E0184E090E0909329038093280376
:1008E0007ACF003991E01907BCF68F5F80931C0125
:1008F0002F5F3F4F309318012093170181E00E9432
:100900007F0186E390E00E949E0187E090E0909353
:100910002903809328035FCF093512400CF4BFCF21
:100920008F5F80931C012F5F3F4F309318012093FE
:10093000170181E00E947F0187E390E00E949E0101
:1009400086E090E0909329038093280344CF99E5B3
:10095000E91692E0F9060CF4A6CF8F5F80931C0194
:100960002F5F3F4F309318012093170181E00E94C1
:100970007F0188E390E00E949E0185E090E09093E3
:1009800029038093280327CF01591140073C110503
:1009900078F421E9E21A21E0F20A87ECE816F10482
:1009A00038F483E090E0909329038093280313CFD9
:1009B00084E090E090932903809328030CCF0159A1
:1009C0001140073C110578F491E9E91A91E0F90A20
:1009D00027ECE216F10438F483E090E090932903C9
:1009E00080932803F8CE87E090E0909329038093CA
:1009F0002803F1CE01591140073C110578F481E933
:100A0000E81A81E0F80A97ECE916F10438F483E07B
:100A100090E09093290380932803DDCE86E090E058
:100A20009093290380932803D6CE01591140073CA7
:100A3000110578F421E9E21A21E0F20A87ECE816C0
:100A4000F10438F483E090E0909329038093280325
:100A5000C2CE85E090E09093290380932803BBCE1B
:100A60008FE185B90E945F0200E014C0612F802FE2
:100A70000E9454029FE728E381E09150204080408B
:100A8000E1F700C000001F5F103484F3802F0E9444
:100A9000C9010F5F023010F410E0F6CF9FEF29E696
:100AA00088E1915020408040E1F700C000001092A2
:100AB0001A011092190110921801109217018091D9
:100AC00001018F5F80930101109229031092280386
:100AD00082CE81E085B90E945F0288E0EAE0F1E021
:100AE000DE01119601900D928A95E1F7BE016F5FCC
:100AF0007F4F80E00E94E601BE016F5F7F4F81E083
:100B00000E94E6019FEF23ED80E39150204080405A
:100B1000E1F700C0000040E860E080E00E941102C0
:100B200040E461E080E00E94110240E262E080E087
:100B30000E94110240E163E080E00E94110248E05F
:100B400064E080E00E94110244E065E080E00E94E1
:100B5000110242E066E080E00E94110241E067E09D
:100B600080E00E9411024AEA60E081E00E941102E6
:100B700045E561E081E00E9411024AEA62E081E01D
:100B80000E94110245E563E081E00E9411024AEAF9
:100B900064E081E00E94110245E565E081E00E9489
:100BA00011024AEA66E081E00E94110245E567E031
:100BB00081E00E9411029FEF23ED80E391502040DD
:100BC0008040E1F700C0000080E00E94C90181E0A0
:100BD0000E94C901109218011092170110921A0177
:100BE0001092190184E08093010110922903109260
:100BF0002803F1CD10921C01F5CD8FEF81B912B809
:100C000084B915B887B918B88AB91BB8809115018D
:100C100090E00E94200964EF71E080E090E00E9483
:100C200032030E94B70210922903109228030E94F7
:100C3000890102C0109221010E9443038091210189
:100C40008823E1F3F7CF98E007C02BB12D7F2BB9B4
:100C50002BB128602BB991509923E9F0292F21500D
:100C6000330BB90141E050E002C0440F551F2A95F3
:100C7000E2F7282F30E02423352302C0359527954D
:100C80006A95E2F73BB1377F3BB92223F1F22BB1F2
:100C900022602BB9DDCF0895CF93DF93D82FC42FD7
:100CA000882319F0DF91CF9108958BB18B7F8BB999
:100CB000862F0E9423068C2F0E942306CD2FCD174E
:100CC00040F480E00E94230680E00E942306CF5F6C
:100CD000F6CF8BB184608BB9E5CF623008F0089510
:100CE000462F6CE00E944C06FACF603108F0089560
:100CF000462F6AE00E944C06FACF623008F0089551
:100D0000462F6FE00E944C06FACF683008F0089535
:100D1000462F6BE00E944C06FACF462F69E00E94F6
:100D20004C060895462F61E00E944C060895462F18
:100D300062E00E944C060895462F63E00E944C0634
:100D40000895462F64E00E944C060895462F65E002
:100D50000E944C060895462F66E00E944C060895B6
:100D6000462F67E00E944C060895462F68E00E94D7
:100D70004C060895E62F642FE830E0F4F0E0E656E4
:100D8000F64F0C9498080E94920608950E949706C8
:100D900008950E949C0608950E94A10608950E944D
:100DA000A60608950E94AB0608950E94B006089515
:100DB0000E94B50608958AB182608AB98AB18860B6
:100DC0008AB98AB184608AB98BB18D7F8BB98BB1B6
:100DD000877F8BB98BB18B7F8BB9089595B19D7F40
:100DE00095B9662329F095B1986095B990E00EC049
:100DF00095B1977F95B9FACF25B12F7E25B925B149
:100E0000206225B925B12F7D25B99F5F983088F4E0
:100E100047E050E0491B5109282F30E002C03595CA
:100E200027954A95E2F720FFE7CF25B1206125B944
:100E3000E6CF85B1826085B9089560E00E94EE0634
:100E4000089561E00E94EE060895CF93DF9384B188
:100E5000826084B984B1846084B984B1886084B9C3
:100E600084B1806184B984B1806284B985B18460C1
:100E700085B985B1826085B983EC99E00197F1F776
:100E800000C0000085B18B7F85B98BE594E40197A4
:100E9000F1F700C0000085B1846085B985B18D7F10
:100EA00085B981E20E941D0783E10E941D0786E04B
:100EB0000E941D0782EC0E941D0780E20E941D0710
:100EC00089E00E941D0780E80E941D0780E40E94BF
:100ED0001D07D0E0C0E0C83F91E0D90728F480E0CA
:100EE0000E9421072196F7CF88E00E941D078CE021
:100EF0000E941D07DF91CF91089580E80E941D0791
:100F000080E40E941D0710921A0310921B0390E0C8
:100F100080E0883F21E0920730F4FC01EE5DFE4F57
:100F200010820196F6CF0895882321F080E20E9476
:100F30001D07089584E2FBCF262F2695269526953A
:100F400090E034E5239F800D911D1124442379F016
:100F5000677021E030E002C0220F331F6A95E2F78C
:100F6000FC01EE5DFE4F8081822B808308956770C7
:100F700021E030E002C0220F331F6A95E2F7FC0146
:100F8000EE5DFE4F20958081282320830895EF9207
:100F9000FF920F931F93CF93DF93E82EF62E00E07E
:100FA00041C060911B0380911A03610F40E0800FE4
:100FB0000E949C071F5FCE01880F991F880F991F01
:100FC000880F991F8C1B9D0B1817190654F5EE2DD1
:100FD0000E2C000CFF0BB097802F6F2D0E9478080D
:100FE0009F01220F331F220F331FE20FF31FE80F61
:100FF000F11DE457FF4FE491F0E0812F0E94780843
:1010000002C0F595E7958A95E2F7E0FFCACF6091B7
:101010001B0380911A03610F41E0800F0E949C071F
:10102000C9CF0F5FCF2DD0E0CE01880F991F880F59
:10103000991F8C0F9D1F0817190614F410E0BBCFE1
:10104000EAE1F3E08F2D880F880F8F0D9081890FD3
:101050008F5F8083843568F010921A03EBE1F3E030
:101060008F2D880F880F880F8F199081890F8F5FC0
:10107000808380911B03803320F010921A0310921A
:101080001B03DF91CF911F910F91FF90EF90089577
:101090001F93CF93DF93C82FD92F162F88818823D2
:1010A00029F02196612F0E94C707F8CFDF91CF91D9
:1010B0001F91089580931A0360931B030895CF93A3
:1010C000DF9380E80E941D0780E40E941D07D0E0A6
:1010D000C0E0C83F81E0D80740F4FE01EE5DFE4F5E
:1010E00080810E9421072196F4CFDF91CF9108954E
:1010F000991B79E004C0991F961708F0961B881F6A
:101100007A95C9F78095089597FB072E16F40094F9
:1011100007D077FD09D00E94A10807FC05D03EF456
:10112000909581959F4F0895709561957F4F089593
:10113000EE0FFF1F0024001C0BBE0790F691E02D60
:101140000994AA1BBB1B51E107C0AA1FBB1FA6170E
:10115000B70710F0A61BB70B881F991F5A95A9F760
:1011600080959095BC01CD010895CF92DF92EF92CA
:10117000FF92CF93DF93CDB7DEB72A970FB6F894DF
:10118000DEBF0FBECDBF89879A87A985BA852D910D
:101190003D914D915C9129833A834B835C83232B52
:1011A000242B252B41F424E239ED4BE557E029832C
:1011B0003A834B835C8369817A818B819C812DE1A9
:1011C00033EF41E050E00E942B0969017A01A7EA60
:1011D000B1E49B01AC010E944A0969837A838B8345
:1011E0009C83ACEEB4EFA70196010E9458099B01C5
:1011F000AC0189819A81AB81BC81820F931FA41FAE
:10120000B51FB7FF03C00197A109B048E985FA856A
:1012100080839183A283B3839F772A960FB6F89435
:10122000DEBF0FBECDBFDF91CF91FF90EF90DF907B
:10123000CF9008950C94B50886E091E00C94B50821
:10124000B0E0A0E08093060190930701A09308010D
:10125000B09309010895052E97FB1EF400940E9497
:10126000420957FD07D00E945D0907FC03D04EF4E8
:101270000C94420950954095309521953F4F4F4F22
:101280005F4F089590958095709561957F4F8F4F32
:101290009F4F08950E947F09A59F900DB49F900DC8
:1012A000A49F800D911D11240895B7FF0C944A0945
:1012B0000E944A09821B930B0895A1E21A2EAA1BD1
:1012C000BB1BFD010DC0AA1FBB1FEE1FFF1FA217F6
:1012D000B307E407F50720F0A21BB30BE40BF50BF3
:1012E000661F771F881F991F1A9469F7609570957C
:1012F000809590959B01AC01BD01CF010895A29FFF
:10130000B001B39FC001A39F700D811D1124911DD9
:10131000B29F700D811D1124911D0895F894FFCF87
:101320006C039503D6030E04C4041505FA04DF0408
:1013300030056905C306C606C906CC06CF06D20627
:04134000D506D806F0
:101344000404010000000100000081422418182454
:0413540042810000D2
:00000001FF
